{
  "contractName": "DogeAttack",
  "abi": [
    {
      "anonymous": false,
      "inputs": [
        {
          "indexed": false,
          "internalType": "uint256",
          "name": "zombieId",
          "type": "uint256"
        },
        {
          "indexed": false,
          "internalType": "string",
          "name": "name",
          "type": "string"
        },
        {
          "indexed": false,
          "internalType": "uint256",
          "name": "dna",
          "type": "uint256"
        }
      ],
      "name": "NewDoge",
      "type": "event"
    },
    {
      "anonymous": false,
      "inputs": [
        {
          "indexed": true,
          "internalType": "address",
          "name": "previousOwner",
          "type": "address"
        },
        {
          "indexed": true,
          "internalType": "address",
          "name": "newOwner",
          "type": "address"
        }
      ],
      "name": "OwnershipTransferred",
      "type": "event"
    },
    {
      "inputs": [
        {
          "internalType": "uint256",
          "name": "_dogId",
          "type": "uint256"
        },
        {
          "internalType": "uint256",
          "name": "_newDna",
          "type": "uint256"
        }
      ],
      "name": "changeDna",
      "outputs": [],
      "stateMutability": "nonpayable",
      "type": "function"
    },
    {
      "inputs": [
        {
          "internalType": "uint256",
          "name": "_dogId",
          "type": "uint256"
        },
        {
          "internalType": "string",
          "name": "_newName",
          "type": "string"
        }
      ],
      "name": "changeName",
      "outputs": [],
      "stateMutability": "nonpayable",
      "type": "function"
    },
    {
      "inputs": [
        {
          "internalType": "string",
          "name": "_name",
          "type": "string"
        }
      ],
      "name": "createRandomDog",
      "outputs": [],
      "stateMutability": "nonpayable",
      "type": "function"
    },
    {
      "inputs": [
        {
          "internalType": "uint256",
          "name": "",
          "type": "uint256"
        }
      ],
      "name": "dogToOwner",
      "outputs": [
        {
          "internalType": "address",
          "name": "",
          "type": "address"
        }
      ],
      "stateMutability": "view",
      "type": "function"
    },
    {
      "inputs": [
        {
          "internalType": "uint256",
          "name": "",
          "type": "uint256"
        }
      ],
      "name": "dogs",
      "outputs": [
        {
          "internalType": "string",
          "name": "name",
          "type": "string"
        },
        {
          "internalType": "uint256",
          "name": "dna",
          "type": "uint256"
        },
        {
          "internalType": "uint32",
          "name": "level",
          "type": "uint32"
        },
        {
          "internalType": "uint32",
          "name": "readyTime",
          "type": "uint32"
        },
        {
          "internalType": "uint16",
          "name": "winCount",
          "type": "uint16"
        },
        {
          "internalType": "uint16",
          "name": "lossCount",
          "type": "uint16"
        }
      ],
      "stateMutability": "view",
      "type": "function"
    },
    {
      "inputs": [
        {
          "internalType": "uint256",
          "name": "_dogId",
          "type": "uint256"
        },
        {
          "internalType": "uint256",
          "name": "_kittyId",
          "type": "uint256"
        }
      ],
      "name": "feedOnKitty",
      "outputs": [],
      "stateMutability": "nonpayable",
      "type": "function"
    },
    {
      "inputs": [
        {
          "internalType": "address",
          "name": "_owner",
          "type": "address"
        }
      ],
      "name": "getDogsByOwner",
      "outputs": [
        {
          "internalType": "uint256[]",
          "name": "",
          "type": "uint256[]"
        }
      ],
      "stateMutability": "view",
      "type": "function"
    },
    {
      "inputs": [
        {
          "internalType": "uint256",
          "name": "_dogId",
          "type": "uint256"
        }
      ],
      "name": "levelUp",
      "outputs": [],
      "stateMutability": "payable",
      "type": "function"
    },
    {
      "inputs": [],
      "name": "owner",
      "outputs": [
        {
          "internalType": "address",
          "name": "",
          "type": "address"
        }
      ],
      "stateMutability": "view",
      "type": "function"
    },
    {
      "inputs": [
        {
          "internalType": "address",
          "name": "_address",
          "type": "address"
        }
      ],
      "name": "setKittyContractAddress",
      "outputs": [],
      "stateMutability": "nonpayable",
      "type": "function"
    },
    {
      "inputs": [
        {
          "internalType": "uint256",
          "name": "_fee",
          "type": "uint256"
        }
      ],
      "name": "setLevelUpFee",
      "outputs": [],
      "stateMutability": "nonpayable",
      "type": "function"
    },
    {
      "inputs": [
        {
          "internalType": "address",
          "name": "newOwner",
          "type": "address"
        }
      ],
      "name": "transferOwnership",
      "outputs": [],
      "stateMutability": "nonpayable",
      "type": "function"
    },
    {
      "inputs": [
        {
          "internalType": "address payable",
          "name": "_i",
          "type": "address"
        }
      ],
      "name": "withdraw",
      "outputs": [],
      "stateMutability": "nonpayable",
      "type": "function"
    },
    {
      "inputs": [
        {
          "internalType": "uint256",
          "name": "_dogId",
          "type": "uint256"
        },
        {
          "internalType": "uint256",
          "name": "_targetId",
          "type": "uint256"
        }
      ],
      "name": "attack",
      "outputs": [],
      "stateMutability": "nonpayable",
      "type": "function"
    }
  ],
  "bytecode": "0x60806040526010600155600154600a0a6002556201518060035566038d7ea4c680006009556000600a556046600b55336000806101000a81548173ffffffffffffffffffffffffffffffffffffffff021916908373ffffffffffffffffffffffffffffffffffffffff16021790555061197f8061007d6000396000f3fe6080604052600436106100dd5760003560e01c806373eb2ac41161007f578063ccf670f811610059578063ccf670f814610543578063e1fa76381461057e578063f2fde38b146105c3578063f8df049d14610614576100dd565b806373eb2ac4146103e15780638da5cb5b1461045c578063c39cbef1146104b3576100dd565b806338272356116100bb57806338272356146101fb57806351cff8d9146102fa5780635f4623f11461034b5780635faf28801461039c576100dd565b80630ce90ec2146100e257806317a7f4cc1461011057806320ac27c314610155575b600080fd5b61010e600480360360208110156100f857600080fd5b81019080803590602001909291905050506106dc565b005b34801561011c57600080fd5b506101536004803603604081101561013357600080fd5b810190808035906020019092919080359060200190929190505050610744565b005b34801561016157600080fd5b506101a46004803603602081101561017857600080fd5b81019080803573ffffffffffffffffffffffffffffffffffffffff169060200190929190505050610899565b6040518080602001828103825283818151815260200191508051906020019060200280838360005b838110156101e75780820151818401526020810190506101cc565b505050509050019250505060405180910390f35b34801561020757600080fd5b506102346004803603602081101561021e57600080fd5b81019080803590602001909291905050506109c6565b60405180806020018781526020018663ffffffff1663ffffffff1681526020018563ffffffff1663ffffffff1681526020018461ffff1661ffff1681526020018361ffff1661ffff168152602001828103825288818151815260200191508051906020019080838360005b838110156102ba57808201518184015260208101905061029f565b50505050905090810190601f1680156102e75780820380516001836020036101000a031916815260200191505b5097505050505050505060405180910390f35b34801561030657600080fd5b506103496004803603602081101561031d57600080fd5b81019080803573ffffffffffffffffffffffffffffffffffffffff169060200190929190505050610ae3565b005b34801561035757600080fd5b5061039a6004803603602081101561036e57600080fd5b81019080803573ffffffffffffffffffffffffffffffffffffffff169060200190929190505050610b86565b005b3480156103a857600080fd5b506103df600480360360408110156103bf57600080fd5b810190808035906020019092919080359060200190929190505050610c23565b005b3480156103ed57600080fd5b5061041a6004803603602081101561040457600080fd5b8101908080359060200190929190505050610cfd565b604051808273ffffffffffffffffffffffffffffffffffffffff1673ffffffffffffffffffffffffffffffffffffffff16815260200191505060405180910390f35b34801561046857600080fd5b50610471610d30565b604051808273ffffffffffffffffffffffffffffffffffffffff1673ffffffffffffffffffffffffffffffffffffffff16815260200191505060405180910390f35b3480156104bf57600080fd5b50610541600480360360408110156104d657600080fd5b8101908080359060200190929190803590602001906401000000008111156104fd57600080fd5b82018360208201111561050f57600080fd5b8035906020019184600183028401116401000000008311171561053157600080fd5b9091929391929390505050610d55565b005b34801561054f57600080fd5b5061057c6004803603602081101561056657600080fd5b8101908080359060200190929190505050610e3b565b005b34801561058a57600080fd5b506105c1600480360360408110156105a157600080fd5b810190808035906020019092919080359060200190929190505050610e9e565b005b3480156105cf57600080fd5b50610612600480360360208110156105e657600080fd5b81019080803573ffffffffffffffffffffffffffffffffffffffff16906020019092919050505061109d565b005b34801561062057600080fd5b506106da6004803603602081101561063757600080fd5b810190808035906020019064010000000081111561065457600080fd5b82018360208201111561066657600080fd5b8035906020019184600183028401116401000000008311171561068857600080fd5b91908080601f016020809104026020016040519081016040528093929190818152602001838380828437600081840152601f19601f8201169050808301925050505050505091929192905050506111ee565b005b60095434146106ea57600080fd5b600581815481106106f757fe5b9060005260206000209060030201600201600081819054906101000a900463ffffffff168092919060010191906101000a81548163ffffffff021916908363ffffffff1602179055505050565b6000600860009054906101000a900473ffffffffffffffffffffffffffffffffffffffff1673ffffffffffffffffffffffffffffffffffffffff1663e98b7f4d836040518263ffffffff1660e01b8152600401808281526020019150506101406040518083038186803b1580156107ba57600080fd5b505afa1580156107ce573d6000803e3d6000fd5b505050506040513d6101408110156107e557600080fd5b8101908080519060200190929190805190602001909291908051906020019092919080519060200190929190805190602001909291908051906020019092919080519060200190929190805190602001909291908051906020019092919080519060200190929190505050909192939495969798509091929394959697509091929394959650909192939495509091929394509091929350909192509091509050809150506108948382611264565b505050565b606080600760008473ffffffffffffffffffffffffffffffffffffffff1673ffffffffffffffffffffffffffffffffffffffff1681526020019081526020016000205460405190808252806020026020018201604052801561090a5781602001602082028038833980820191505090505b509050600080905060008090505b6005805490508110156109bb578473ffffffffffffffffffffffffffffffffffffffff166006600083815260200190815260200160002060009054906101000a900473ffffffffffffffffffffffffffffffffffffffff1673ffffffffffffffffffffffffffffffffffffffff1614156109ae578083838151811061099957fe5b60200260200101818152505081806001019250505b8080600101915050610918565b508192505050919050565b600581815481106109d357fe5b9060005260206000209060030201600091509050806000018054600181600116156101000203166002900480601f016020809104026020016040519081016040528092919081815260200182805460018160011615610100020316600290048015610a7f5780601f10610a5457610100808354040283529160200191610a7f565b820191906000526020600020905b815481529060010190602001808311610a6257829003601f168201915b5050505050908060010154908060020160009054906101000a900463ffffffff16908060020160049054906101000a900463ffffffff16908060020160089054906101000a900461ffff169080600201600a9054906101000a900461ffff16905086565b6000809054906101000a900473ffffffffffffffffffffffffffffffffffffffff1673ffffffffffffffffffffffffffffffffffffffff163373ffffffffffffffffffffffffffffffffffffffff1614610b3c57600080fd5b8073ffffffffffffffffffffffffffffffffffffffff166108fc479081150290604051600060405180830381858888f19350505050158015610b82573d6000803e3d6000fd5b5050565b6000809054906101000a900473ffffffffffffffffffffffffffffffffffffffff1673ffffffffffffffffffffffffffffffffffffffff163373ffffffffffffffffffffffffffffffffffffffff1614610bdf57600080fd5b80600860006101000a81548173ffffffffffffffffffffffffffffffffffffffff021916908373ffffffffffffffffffffffffffffffffffffffff16021790555050565b6014828160058281548110610c3457fe5b906000526020600020906003020160020160009054906101000a900463ffffffff1663ffffffff161015610c6757600080fd5b836006600082815260200190815260200160002060009054906101000a900473ffffffffffffffffffffffffffffffffffffffff1673ffffffffffffffffffffffffffffffffffffffff163373ffffffffffffffffffffffffffffffffffffffff1614610cd357600080fd5b8360058681548110610ce157fe5b9060005260206000209060030201600101819055505050505050565b60066020528060005260406000206000915054906101000a900473ffffffffffffffffffffffffffffffffffffffff1681565b6000809054906101000a900473ffffffffffffffffffffffffffffffffffffffff1681565b6002838160058281548110610d6657fe5b906000526020600020906003020160020160009054906101000a900463ffffffff1663ffffffff161015610d9957600080fd5b846006600082815260200190815260200160002060009054906101000a900473ffffffffffffffffffffffffffffffffffffffff1673ffffffffffffffffffffffffffffffffffffffff163373ffffffffffffffffffffffffffffffffffffffff1614610e0557600080fd5b848460058881548110610e1457fe5b90600052602060002090600302016000019190610e329291906117da565b50505050505050565b6000809054906101000a900473ffffffffffffffffffffffffffffffffffffffff1673ffffffffffffffffffffffffffffffffffffffff163373ffffffffffffffffffffffffffffffffffffffff1614610e9457600080fd5b8060098190555050565b816006600082815260200190815260200160002060009054906101000a900473ffffffffffffffffffffffffffffffffffffffff1673ffffffffffffffffffffffffffffffffffffffff163373ffffffffffffffffffffffffffffffffffffffff1614610f0a57600080fd5b600060058481548110610f1957fe5b90600052602060002090600302019050600060058481548110610f3857fe5b906000526020600020906003020190506000610f546064611373565b9050600b54811161101d5782600201600881819054906101000a900461ffff168092919060010191906101000a81548161ffff021916908361ffff1602179055505082600201600081819054906101000a900463ffffffff168092919060010191906101000a81548163ffffffff021916908363ffffffff1602179055505081600201600a81819054906101000a900461ffff168092919060010191906101000a81548161ffff021916908361ffff16021790555050611018868360010154611264565b611095565b82600201600a81819054906101000a900461ffff168092919060010191906101000a81548161ffff021916908361ffff1602179055505081600201600881819054906101000a900461ffff168092919060010191906101000a81548161ffff021916908361ffff1602179055505061109483611402565b5b505050505050565b6000809054906101000a900473ffffffffffffffffffffffffffffffffffffffff1673ffffffffffffffffffffffffffffffffffffffff163373ffffffffffffffffffffffffffffffffffffffff16146110f657600080fd5b600073ffffffffffffffffffffffffffffffffffffffff168173ffffffffffffffffffffffffffffffffffffffff16141561113057600080fd5b8073ffffffffffffffffffffffffffffffffffffffff166000809054906101000a900473ffffffffffffffffffffffffffffffffffffffff1673ffffffffffffffffffffffffffffffffffffffff167f8be0079c531659141344cd1fd0a4f28419497f9722a3daafe3b4186f6b6457e060405160405180910390a3806000806101000a81548173ffffffffffffffffffffffffffffffffffffffff021916908373ffffffffffffffffffffffffffffffffffffffff16021790555050565b6000600760003373ffffffffffffffffffffffffffffffffffffffff1673ffffffffffffffffffffffffffffffffffffffff168152602001908152602001600020541461123a57600080fd5b60006112458261142c565b90506064818161125157fe5b068103905061126082826114ba565b5050565b816006600082815260200190815260200160002060009054906101000a900473ffffffffffffffffffffffffffffffffffffffff1673ffffffffffffffffffffffffffffffffffffffff163373ffffffffffffffffffffffffffffffffffffffff16146112d057600080fd5b6000600584815481106112df57fe5b906000526020600020906003020190506112f881611797565b61130157600080fd5b600254838161130c57fe5b06925060006002848360010154018161132157fe5b0490506113636040518060400160405280600681526020017f4e6577446f670000000000000000000000000000000000000000000000000000815250826114ba565b61136c82611402565b5050505050565b6000600a60008154809291906001019190505550814233600a54604051602001808481526020018373ffffffffffffffffffffffffffffffffffffffff1673ffffffffffffffffffffffffffffffffffffffff1660601b815260140182815260200193505050506040516020818303038152906040528051906020012060001c816113fa57fe5b069050919050565b60035442018160020160046101000a81548163ffffffff021916908363ffffffff16021790555050565b600080826040516020018082805190602001908083835b602083106114665780518252602082019150602081019050602083039250611443565b6001836020036101000a0380198251168184511680821785525050505050509050019150506040516020818303038152906040528051906020012060001c905060025481816114b157fe5b06915050919050565b6114c261185a565b828160000181905250818160200181815250506001816040019063ffffffff16908163ffffffff16815250506003544201816060019063ffffffff16908163ffffffff16815250506000816080019061ffff16908161ffff168152505060008160a0019061ffff16908161ffff16815250506005819080600181540180825580915050600190039060005260206000209060030201600090919091909150600082015181600001908051906020019061157c9291906118a4565b506020820151816001015560408201518160020160006101000a81548163ffffffff021916908363ffffffff16021790555060608201518160020160046101000a81548163ffffffff021916908363ffffffff16021790555060808201518160020160086101000a81548161ffff021916908361ffff16021790555060a082015181600201600a6101000a81548161ffff021916908361ffff16021790555050506000428360045401019050336006600083815260200190815260200160002060006101000a81548173ffffffffffffffffffffffffffffffffffffffff021916908373ffffffffffffffffffffffffffffffffffffffff1602179055506116cd6001600760003373ffffffffffffffffffffffffffffffffffffffff1673ffffffffffffffffffffffffffffffffffffffff168152602001908152602001600020546117be90919063ffffffff16565b507f602d5f162a3ab956e72d52d29515db38e085449c051f4ba319f4ccff1569b1908185856040518084815260200180602001838152602001828103825284818151815260200191508051906020019080838360005b8381101561173e578082015181840152602081019050611723565b50505050905090810190601f16801561176b5780820380516001836020036101000a031916815260200191505b5094505050505060405180910390a161179060016004546117be90919063ffffffff16565b5050505050565b6000428260020160049054906101000a900463ffffffff1663ffffffff1611159050919050565b6000808284019050838110156117d057fe5b8091505092915050565b828054600181600116156101000203166002900490600052602060002090601f016020900481019282601f1061181b57803560ff1916838001178555611849565b82800160010185558215611849579182015b8281111561184857823582559160200191906001019061182d565b5b5090506118569190611924565b5090565b6040518060c001604052806060815260200160008152602001600063ffffffff168152602001600063ffffffff168152602001600061ffff168152602001600061ffff1681525090565b828054600181600116156101000203166002900490600052602060002090601f016020900481019282601f106118e557805160ff1916838001178555611913565b82800160010185558215611913579182015b828111156119125782518255916020019190600101906118f7565b5b5090506119209190611924565b5090565b61194691905b8082111561194257600081600090555060010161192a565b5090565b9056fea264697066735822122093cd967bf094c69b839cf7ef9ecb6d807bcaf16b13af17251b0b3db0e46d246364736f6c63430006000033",
  "source": "// SPDX-License-Identifier: MIT\n\npragma solidity >0.5.19 <=0.7.0;\n\nimport \"./dogHelper.sol\";\n\ncontract DogeAttack is DogHelper {\n  uint randNonce = 0;\n  uint attackVictoryProbability = 70;\n\n  function randMod(uint _modulus) internal returns(uint) {\n    randNonce++;\n    return uint(keccak256(abi.encodePacked(block.timestamp, msg.sender, randNonce))) % _modulus;\n  }\n\n  function attack(uint _dogId, uint _targetId) external onlyOwnerOf(_dogId) {\n    Dog storage myDog = dogs[_dogId];\n    Dog storage enemyDog = dogs[_targetId];\n    uint rand = randMod(100);\n    if (rand <= attackVictoryProbability) {\n      myDog.winCount++;\n      myDog.level++;\n      enemyDog.lossCount++;\n      feedAndMultiply(_dogId, enemyDog.dna);\n    } else {\n      myDog.lossCount++;\n      enemyDog.winCount++;\n      _triggerCooldown(myDog);\n    }\n  }\n}\n",
  "sourcePath": "/home/julian/Desktop/BinanceCriptoDogs/contracts/dogAttack.sol",
  "compiler": {
    "name": "solc",
    "version": "0.6.0+commit.26b70077.Emscripten.clang"
  },
  "schemaVersion": "3.2.0",
  "updatedAt": "2021-02-02T06:04:48.777Z",
  "devdoc": {
    "methods": {
      "transferOwnership(address)": {
        "details": "Allows the current owner to transfer control of the contract to a newOwner.",
        "params": {
          "newOwner": "The address to transfer ownership to."
        }
      }
    }
  },
  "userdoc": {
    "methods": {}
  }
}