{
  "contractName": "DogFeeding",
  "abi": [
    {
      "anonymous": false,
      "inputs": [
        {
          "indexed": false,
          "internalType": "uint256",
          "name": "zombieId",
          "type": "uint256"
        },
        {
          "indexed": false,
          "internalType": "string",
          "name": "name",
          "type": "string"
        },
        {
          "indexed": false,
          "internalType": "uint256",
          "name": "dna",
          "type": "uint256"
        }
      ],
      "name": "NewDoge",
      "type": "event"
    },
    {
      "anonymous": false,
      "inputs": [
        {
          "indexed": true,
          "internalType": "address",
          "name": "previousOwner",
          "type": "address"
        },
        {
          "indexed": true,
          "internalType": "address",
          "name": "newOwner",
          "type": "address"
        }
      ],
      "name": "OwnershipTransferred",
      "type": "event"
    },
    {
      "inputs": [
        {
          "internalType": "string",
          "name": "_name",
          "type": "string"
        }
      ],
      "name": "createRandomDog",
      "outputs": [],
      "stateMutability": "nonpayable",
      "type": "function"
    },
    {
      "inputs": [
        {
          "internalType": "uint256",
          "name": "",
          "type": "uint256"
        }
      ],
      "name": "dogToOwner",
      "outputs": [
        {
          "internalType": "address",
          "name": "",
          "type": "address"
        }
      ],
      "stateMutability": "view",
      "type": "function"
    },
    {
      "inputs": [
        {
          "internalType": "uint256",
          "name": "",
          "type": "uint256"
        }
      ],
      "name": "dogs",
      "outputs": [
        {
          "internalType": "string",
          "name": "name",
          "type": "string"
        },
        {
          "internalType": "uint256",
          "name": "dna",
          "type": "uint256"
        },
        {
          "internalType": "uint32",
          "name": "level",
          "type": "uint32"
        },
        {
          "internalType": "uint32",
          "name": "readyTime",
          "type": "uint32"
        },
        {
          "internalType": "uint16",
          "name": "winCount",
          "type": "uint16"
        },
        {
          "internalType": "uint16",
          "name": "lossCount",
          "type": "uint16"
        }
      ],
      "stateMutability": "view",
      "type": "function"
    },
    {
      "inputs": [],
      "name": "owner",
      "outputs": [
        {
          "internalType": "address",
          "name": "",
          "type": "address"
        }
      ],
      "stateMutability": "view",
      "type": "function"
    },
    {
      "inputs": [
        {
          "internalType": "address",
          "name": "newOwner",
          "type": "address"
        }
      ],
      "name": "transferOwnership",
      "outputs": [],
      "stateMutability": "nonpayable",
      "type": "function"
    },
    {
      "inputs": [
        {
          "internalType": "address",
          "name": "_address",
          "type": "address"
        }
      ],
      "name": "setKittyContractAddress",
      "outputs": [],
      "stateMutability": "nonpayable",
      "type": "function"
    },
    {
      "inputs": [
        {
          "internalType": "uint256",
          "name": "_dogId",
          "type": "uint256"
        },
        {
          "internalType": "uint256",
          "name": "_kittyId",
          "type": "uint256"
        }
      ],
      "name": "feedOnKitty",
      "outputs": [],
      "stateMutability": "nonpayable",
      "type": "function"
    }
  ],
  "bytecode": "0x60806040526010600155600154600a0a60025562015180600355336000806101000a81548173ffffffffffffffffffffffffffffffffffffffff021916908373ffffffffffffffffffffffffffffffffffffffff160217905550610ee1806100686000396000f3fe608060405234801561001057600080fd5b506004361061007d5760003560e01c806373eb2ac41161005b57806373eb2ac4146101f05780638da5cb5b1461025e578063f2fde38b146102a8578063f8df049d146102ec5761007d565b806317a7f4cc1461008257806338272356146100ba5780635f4623f1146101ac575b600080fd5b6100b86004803603604081101561009857600080fd5b8101908080359060200190929190803590602001909291905050506103a7565b005b6100e6600480360360208110156100d057600080fd5b81019080803590602001909291905050506104fc565b60405180806020018781526020018663ffffffff1663ffffffff1681526020018563ffffffff1663ffffffff1681526020018461ffff1661ffff1681526020018361ffff1661ffff168152602001828103825288818151815260200191508051906020019080838360005b8381101561016c578082015181840152602081019050610151565b50505050905090810190601f1680156101995780820380516001836020036101000a031916815260200191505b5097505050505050505060405180910390f35b6101ee600480360360208110156101c257600080fd5b81019080803573ffffffffffffffffffffffffffffffffffffffff169060200190929190505050610619565b005b61021c6004803603602081101561020657600080fd5b81019080803590602001909291905050506106b6565b604051808273ffffffffffffffffffffffffffffffffffffffff1673ffffffffffffffffffffffffffffffffffffffff16815260200191505060405180910390f35b6102666106e9565b604051808273ffffffffffffffffffffffffffffffffffffffff1673ffffffffffffffffffffffffffffffffffffffff16815260200191505060405180910390f35b6102ea600480360360208110156102be57600080fd5b81019080803573ffffffffffffffffffffffffffffffffffffffff16906020019092919050505061070e565b005b6103a56004803603602081101561030257600080fd5b810190808035906020019064010000000081111561031f57600080fd5b82018360208201111561033157600080fd5b8035906020019184600183028401116401000000008311171561035357600080fd5b91908080601f016020809104026020016040519081016040528093929190818152602001838380828437600081840152601f19601f82011690508083019250505050505050919291929050505061085f565b005b6000600860009054906101000a900473ffffffffffffffffffffffffffffffffffffffff1673ffffffffffffffffffffffffffffffffffffffff1663e98b7f4d836040518263ffffffff1660e01b8152600401808281526020019150506101406040518083038186803b15801561041d57600080fd5b505afa158015610431573d6000803e3d6000fd5b505050506040513d61014081101561044857600080fd5b8101908080519060200190929190805190602001909291908051906020019092919080519060200190929190805190602001909291908051906020019092919080519060200190929190805190602001909291908051906020019092919080519060200190929190505050909192939495969798509091929394959697509091929394959650909192939495509091929394509091929350909192509091509050809150506104f783826108d5565b505050565b6005818154811061050957fe5b9060005260206000209060030201600091509050806000018054600181600116156101000203166002900480601f0160208091040260200160405190810160405280929190818152602001828054600181600116156101000203166002900480156105b55780601f1061058a576101008083540402835291602001916105b5565b820191906000526020600020905b81548152906001019060200180831161059857829003601f168201915b5050505050908060010154908060020160009054906101000a900463ffffffff16908060020160049054906101000a900463ffffffff16908060020160089054906101000a900461ffff169080600201600a9054906101000a900461ffff16905086565b6000809054906101000a900473ffffffffffffffffffffffffffffffffffffffff1673ffffffffffffffffffffffffffffffffffffffff163373ffffffffffffffffffffffffffffffffffffffff161461067257600080fd5b80600860006101000a81548173ffffffffffffffffffffffffffffffffffffffff021916908373ffffffffffffffffffffffffffffffffffffffff16021790555050565b60066020528060005260406000206000915054906101000a900473ffffffffffffffffffffffffffffffffffffffff1681565b6000809054906101000a900473ffffffffffffffffffffffffffffffffffffffff1681565b6000809054906101000a900473ffffffffffffffffffffffffffffffffffffffff1673ffffffffffffffffffffffffffffffffffffffff163373ffffffffffffffffffffffffffffffffffffffff161461076757600080fd5b600073ffffffffffffffffffffffffffffffffffffffff168173ffffffffffffffffffffffffffffffffffffffff1614156107a157600080fd5b8073ffffffffffffffffffffffffffffffffffffffff166000809054906101000a900473ffffffffffffffffffffffffffffffffffffffff1673ffffffffffffffffffffffffffffffffffffffff167f8be0079c531659141344cd1fd0a4f28419497f9722a3daafe3b4186f6b6457e060405160405180910390a3806000806101000a81548173ffffffffffffffffffffffffffffffffffffffff021916908373ffffffffffffffffffffffffffffffffffffffff16021790555050565b6000600760003373ffffffffffffffffffffffffffffffffffffffff1673ffffffffffffffffffffffffffffffffffffffff16815260200190815260200160002054146108ab57600080fd5b60006108b6826109e4565b9050606481816108c257fe5b06810390506108d18282610a72565b5050565b816006600082815260200190815260200160002060009054906101000a900473ffffffffffffffffffffffffffffffffffffffff1673ffffffffffffffffffffffffffffffffffffffff163373ffffffffffffffffffffffffffffffffffffffff161461094157600080fd5b60006005848154811061095057fe5b9060005260206000209060030201905061096981610d4f565b61097257600080fd5b600254838161097d57fe5b06925060006002848360010154018161099257fe5b0490506109d46040518060400160405280600681526020017f4e6577446f67000000000000000000000000000000000000000000000000000081525082610a72565b6109dd82610d76565b5050505050565b600080826040516020018082805190602001908083835b60208310610a1e57805182526020820191506020810190506020830392506109fb565b6001836020036101000a0380198251168184511680821785525050505050509050019150506040516020818303038152906040528051906020012060001c90506002548181610a6957fe5b06915050919050565b610a7a610dbc565b828160000181905250818160200181815250506001816040019063ffffffff16908163ffffffff16815250506003544201816060019063ffffffff16908163ffffffff16815250506000816080019061ffff16908161ffff168152505060008160a0019061ffff16908161ffff168152505060058190806001815401808255809150506001900390600052602060002090600302016000909190919091506000820151816000019080519060200190610b34929190610e06565b506020820151816001015560408201518160020160006101000a81548163ffffffff021916908363ffffffff16021790555060608201518160020160046101000a81548163ffffffff021916908363ffffffff16021790555060808201518160020160086101000a81548161ffff021916908361ffff16021790555060a082015181600201600a6101000a81548161ffff021916908361ffff16021790555050506000428360045401019050336006600083815260200190815260200160002060006101000a81548173ffffffffffffffffffffffffffffffffffffffff021916908373ffffffffffffffffffffffffffffffffffffffff160217905550610c856001600760003373ffffffffffffffffffffffffffffffffffffffff1673ffffffffffffffffffffffffffffffffffffffff16815260200190815260200160002054610da090919063ffffffff16565b507f602d5f162a3ab956e72d52d29515db38e085449c051f4ba319f4ccff1569b1908185856040518084815260200180602001838152602001828103825284818151815260200191508051906020019080838360005b83811015610cf6578082015181840152602081019050610cdb565b50505050905090810190601f168015610d235780820380516001836020036101000a031916815260200191505b5094505050505060405180910390a1610d486001600454610da090919063ffffffff16565b5050505050565b6000428260020160049054906101000a900463ffffffff1663ffffffff1611159050919050565b60035442018160020160046101000a81548163ffffffff021916908363ffffffff16021790555050565b600080828401905083811015610db257fe5b8091505092915050565b6040518060c001604052806060815260200160008152602001600063ffffffff168152602001600063ffffffff168152602001600061ffff168152602001600061ffff1681525090565b828054600181600116156101000203166002900490600052602060002090601f016020900481019282601f10610e4757805160ff1916838001178555610e75565b82800160010185558215610e75579182015b82811115610e74578251825591602001919060010190610e59565b5b509050610e829190610e86565b5090565b610ea891905b80821115610ea4576000816000905550600101610e8c565b5090565b9056fea26469706673582212202d639b3493069f29c790cee8e07a364b50adf6a577248288ce358b66599a64f464736f6c63430006000033",
  "source": "// SPDX-License-Identifier: MIT\n\npragma solidity >0.5.19 <=0.7.0;\n\n\nimport \"./dogFactory.sol\";\n\nabstract contract  KittyInterface  {\n  function getKitty(uint256 _id) external virtual view returns (\n    bool isGestating,\n    bool isReady,\n    uint256 cooldownIndex,\n    uint256 nextActionAt,\n    uint256 siringWithId,\n    uint256 birthTime,\n    uint256 matronId,\n    uint256 sireId,\n    uint256 generation,\n    uint256 genes\n  );\n}\n\ncontract DogFeeding is DogFactory {\n\n  KittyInterface kittyContract;\n\n  modifier onlyOwnerOf(uint _dogId) {\n    require(msg.sender == dogToOwner[_dogId]);\n    _;\n  }\n\n  function setKittyContractAddress(address _address) external onlyOwner {\n    kittyContract = KittyInterface(_address);\n  }\n\n  function _triggerCooldown(Dog storage _dog) internal {\n    _dog.readyTime = uint32(block.timestamp + cooldownTime);\n  }\n\n  function _isReady(Dog storage _dog) internal view returns (bool) {\n      return (_dog.readyTime <= block.timestamp);\n  }\n\n  function feedAndMultiply(uint _dogId, uint _targetDna ) internal onlyOwnerOf(_dogId) {\n    Dog storage mydog = dogs[_dogId];\n    require(_isReady(mydog));\n    _targetDna = _targetDna % dnaModulus;\n    uint newDna = (mydog.dna + _targetDna) / 2;   \n    _createDog(\"NewDog\", newDna);\n    _triggerCooldown(mydog);\n  }\n\n  function feedOnKitty(uint _dogId, uint _kittyId) public {\n    uint kittyDna;\n    (,,,,,,,,,kittyDna) = kittyContract.getKitty(_kittyId);\n    feedAndMultiply(_dogId, kittyDna);\n  }\n}\n",
  "sourcePath": "/home/julian/Desktop/BinanceCriptoDogs/contracts/dogFeeding.sol",
  "compiler": {
    "name": "solc",
    "version": "0.6.0+commit.26b70077.Emscripten.clang"
  },
  "schemaVersion": "3.2.0",
  "updatedAt": "2021-02-02T06:04:48.787Z",
  "devdoc": {
    "methods": {
      "transferOwnership(address)": {
        "details": "Allows the current owner to transfer control of the contract to a newOwner.",
        "params": {
          "newOwner": "The address to transfer ownership to."
        }
      }
    }
  },
  "userdoc": {
    "methods": {}
  }
}