{
  "contractName": "DogFactory",
  "abi": [
    {
      "anonymous": false,
      "inputs": [
        {
          "indexed": false,
          "internalType": "uint256",
          "name": "zombieId",
          "type": "uint256"
        },
        {
          "indexed": false,
          "internalType": "string",
          "name": "name",
          "type": "string"
        },
        {
          "indexed": false,
          "internalType": "uint256",
          "name": "dna",
          "type": "uint256"
        }
      ],
      "name": "NewDoge",
      "type": "event"
    },
    {
      "anonymous": false,
      "inputs": [
        {
          "indexed": true,
          "internalType": "address",
          "name": "previousOwner",
          "type": "address"
        },
        {
          "indexed": true,
          "internalType": "address",
          "name": "newOwner",
          "type": "address"
        }
      ],
      "name": "OwnershipTransferred",
      "type": "event"
    },
    {
      "inputs": [
        {
          "internalType": "uint256",
          "name": "",
          "type": "uint256"
        }
      ],
      "name": "dogToOwner",
      "outputs": [
        {
          "internalType": "address",
          "name": "",
          "type": "address"
        }
      ],
      "stateMutability": "view",
      "type": "function"
    },
    {
      "inputs": [
        {
          "internalType": "uint256",
          "name": "",
          "type": "uint256"
        }
      ],
      "name": "dogs",
      "outputs": [
        {
          "internalType": "string",
          "name": "name",
          "type": "string"
        },
        {
          "internalType": "uint256",
          "name": "dna",
          "type": "uint256"
        },
        {
          "internalType": "uint32",
          "name": "level",
          "type": "uint32"
        },
        {
          "internalType": "uint32",
          "name": "readyTime",
          "type": "uint32"
        },
        {
          "internalType": "uint16",
          "name": "winCount",
          "type": "uint16"
        },
        {
          "internalType": "uint16",
          "name": "lossCount",
          "type": "uint16"
        }
      ],
      "stateMutability": "view",
      "type": "function"
    },
    {
      "inputs": [],
      "name": "owner",
      "outputs": [
        {
          "internalType": "address",
          "name": "",
          "type": "address"
        }
      ],
      "stateMutability": "view",
      "type": "function"
    },
    {
      "inputs": [
        {
          "internalType": "address",
          "name": "newOwner",
          "type": "address"
        }
      ],
      "name": "transferOwnership",
      "outputs": [],
      "stateMutability": "nonpayable",
      "type": "function"
    },
    {
      "inputs": [
        {
          "internalType": "string",
          "name": "_name",
          "type": "string"
        }
      ],
      "name": "createRandomDog",
      "outputs": [],
      "stateMutability": "nonpayable",
      "type": "function"
    }
  ],
  "bytecode": "0x60806040526010600155600154600a0a60025562015180600355336000806101000a81548173ffffffffffffffffffffffffffffffffffffffff021916908373ffffffffffffffffffffffffffffffffffffffff160217905550610aed806100686000396000f3fe608060405234801561001057600080fd5b50600436106100575760003560e01c8063382723561461005c57806373eb2ac41461014e5780638da5cb5b146101bc578063f2fde38b14610206578063f8df049d1461024a575b600080fd5b6100886004803603602081101561007257600080fd5b8101908080359060200190929190505050610305565b60405180806020018781526020018663ffffffff1663ffffffff1681526020018563ffffffff1663ffffffff1681526020018461ffff1661ffff1681526020018361ffff1661ffff168152602001828103825288818151815260200191508051906020019080838360005b8381101561010e5780820151818401526020810190506100f3565b50505050905090810190601f16801561013b5780820380516001836020036101000a031916815260200191505b5097505050505050505060405180910390f35b61017a6004803603602081101561016457600080fd5b8101908080359060200190929190505050610422565b604051808273ffffffffffffffffffffffffffffffffffffffff1673ffffffffffffffffffffffffffffffffffffffff16815260200191505060405180910390f35b6101c4610455565b604051808273ffffffffffffffffffffffffffffffffffffffff1673ffffffffffffffffffffffffffffffffffffffff16815260200191505060405180910390f35b6102486004803603602081101561021c57600080fd5b81019080803573ffffffffffffffffffffffffffffffffffffffff16906020019092919050505061047a565b005b6103036004803603602081101561026057600080fd5b810190808035906020019064010000000081111561027d57600080fd5b82018360208201111561028f57600080fd5b803590602001918460018302840111640100000000831117156102b157600080fd5b91908080601f016020809104026020016040519081016040528093929190818152602001838380828437600081840152601f19601f8201169050808301925050505050505091929192905050506105cb565b005b6005818154811061031257fe5b9060005260206000209060030201600091509050806000018054600181600116156101000203166002900480601f0160208091040260200160405190810160405280929190818152602001828054600181600116156101000203166002900480156103be5780601f10610393576101008083540402835291602001916103be565b820191906000526020600020905b8154815290600101906020018083116103a157829003601f168201915b5050505050908060010154908060020160009054906101000a900463ffffffff16908060020160049054906101000a900463ffffffff16908060020160089054906101000a900461ffff169080600201600a9054906101000a900461ffff16905086565b60066020528060005260406000206000915054906101000a900473ffffffffffffffffffffffffffffffffffffffff1681565b6000809054906101000a900473ffffffffffffffffffffffffffffffffffffffff1681565b6000809054906101000a900473ffffffffffffffffffffffffffffffffffffffff1673ffffffffffffffffffffffffffffffffffffffff163373ffffffffffffffffffffffffffffffffffffffff16146104d357600080fd5b600073ffffffffffffffffffffffffffffffffffffffff168173ffffffffffffffffffffffffffffffffffffffff16141561050d57600080fd5b8073ffffffffffffffffffffffffffffffffffffffff166000809054906101000a900473ffffffffffffffffffffffffffffffffffffffff1673ffffffffffffffffffffffffffffffffffffffff167f8be0079c531659141344cd1fd0a4f28419497f9722a3daafe3b4186f6b6457e060405160405180910390a3806000806101000a81548173ffffffffffffffffffffffffffffffffffffffff021916908373ffffffffffffffffffffffffffffffffffffffff16021790555050565b6000600760003373ffffffffffffffffffffffffffffffffffffffff1673ffffffffffffffffffffffffffffffffffffffff168152602001908152602001600020541461061757600080fd5b600061062282610641565b90506064818161062e57fe5b068103905061063d82826106cf565b5050565b600080826040516020018082805190602001908083835b6020831061067b5780518252602082019150602081019050602083039250610658565b6001836020036101000a0380198251168184511680821785525050505050509050019150506040516020818303038152906040528051906020012060001c905060025481816106c657fe5b06915050919050565b6106d76109c8565b828160000181905250818160200181815250506001816040019063ffffffff16908163ffffffff16815250506003544201816060019063ffffffff16908163ffffffff16815250506000816080019061ffff16908161ffff168152505060008160a0019061ffff16908161ffff168152505060058190806001815401808255809150506001900390600052602060002090600302016000909190919091506000820151816000019080519060200190610791929190610a12565b506020820151816001015560408201518160020160006101000a81548163ffffffff021916908363ffffffff16021790555060608201518160020160046101000a81548163ffffffff021916908363ffffffff16021790555060808201518160020160086101000a81548161ffff021916908361ffff16021790555060a082015181600201600a6101000a81548161ffff021916908361ffff16021790555050506000428360045401019050336006600083815260200190815260200160002060006101000a81548173ffffffffffffffffffffffffffffffffffffffff021916908373ffffffffffffffffffffffffffffffffffffffff1602179055506108e26001600760003373ffffffffffffffffffffffffffffffffffffffff1673ffffffffffffffffffffffffffffffffffffffff168152602001908152602001600020546109ac90919063ffffffff16565b507f602d5f162a3ab956e72d52d29515db38e085449c051f4ba319f4ccff1569b1908185856040518084815260200180602001838152602001828103825284818151815260200191508051906020019080838360005b83811015610953578082015181840152602081019050610938565b50505050905090810190601f1680156109805780820380516001836020036101000a031916815260200191505b5094505050505060405180910390a16109a560016004546109ac90919063ffffffff16565b5050505050565b6000808284019050838110156109be57fe5b8091505092915050565b6040518060c001604052806060815260200160008152602001600063ffffffff168152602001600063ffffffff168152602001600061ffff168152602001600061ffff1681525090565b828054600181600116156101000203166002900490600052602060002090601f016020900481019282601f10610a5357805160ff1916838001178555610a81565b82800160010185558215610a81579182015b82811115610a80578251825591602001919060010190610a65565b5b509050610a8e9190610a92565b5090565b610ab491905b80821115610ab0576000816000905550600101610a98565b5090565b9056fea264697066735822122003f303b3a43d3f2a32efa96efa6e69174432fdc2448a702b544b42a6a8e2c47264736f6c63430006000033",
  "source": "// SPDX-License-Identifier: MIT\n\npragma solidity >0.5.19 <=0.7.0;\n\nimport \"./ownable.sol\";\nimport \"./safemath.sol\";\n\ncontract DogFactory is Ownable {\n    using SafeMath for uint256;\n    using SafeMath for uint32;\n    using SafeMath for uint16;\n\n    event NewDoge(uint zombieId, string name, uint dna);\n\n    uint256 dnaDigits = 16;\n    uint256 dnaModulus = 10**dnaDigits;\n    uint256 cooldownTime = 1 days;\n    uint256 countId;\n\n    struct Dog {\n        string name;\n        uint256 dna;\n        uint32 level;\n        uint32 readyTime;\n        uint16 winCount;\n        uint16 lossCount;\n    }\n\n    Dog[] public dogs;\n\n    mapping(uint256 => address) public dogToOwner;\n    mapping(address => uint) ownerDogCount;\n\n    function _createDog(string memory _name, uint256 _dna) internal {\n        //uint id = dogs.push(Dog(_name, _dna, 1, uint32(block.timestamp + cooldownTime),0,0)) - 1;\n        Dog memory dog;\n        dog.name = _name;\n        dog.dna = _dna;\n        dog.level = 1;\n        dog.readyTime = uint32(block.timestamp + cooldownTime);\n        dog.winCount = 0;\n        dog.lossCount = 0;\n        dogs.push(dog);\n        uint id = countId + _dna + block.timestamp;       \n        dogToOwner[id] = msg.sender;\n        ownerDogCount[msg.sender].add(1);\n        emit NewDoge(id, _name, _dna);\n        countId.add(1);\n    }\n\n    function _generateRandomDna(string memory _str)\n        private\n        view\n        returns (uint256)\n    {\n        uint256 rand = uint256(keccak256(abi.encodePacked(_str)));\n        return rand % dnaModulus;\n    }\n\n    function createRandomDog(string memory _name) public {\n        require(ownerDogCount[msg.sender] == 0);\n        uint256 randDna = _generateRandomDna(_name);\n        randDna = randDna - (randDna % 100);\n        _createDog(_name, randDna);\n    }\n}\n",
  "sourcePath": "/home/julian/Desktop/BinanceCriptoDogs/contracts/dogFactory.sol",
  "compiler": {
    "name": "solc",
    "version": "0.6.0+commit.26b70077.Emscripten.clang"
  },
  "schemaVersion": "3.2.0",
  "updatedAt": "2021-02-02T06:04:48.782Z",
  "devdoc": {
    "methods": {
      "transferOwnership(address)": {
        "details": "Allows the current owner to transfer control of the contract to a newOwner.",
        "params": {
          "newOwner": "The address to transfer ownership to."
        }
      }
    }
  },
  "userdoc": {
    "methods": {}
  }
}